:020000040000fa
:080000000001040000000000f3
:020000040000fa
:100200006f8820000e7922000e0188000000000097
:100210000c000700605520000100200011000700bd
:10022000000020000000e000020032000000020098
:100230000000000040020200000000000040da0060
:100240000000fe004440a900000020000000e00083
:100250000300320000002000a00188004440a800f4
:100260000000060091018800800078000000eb008b
:1002700015003700e280400032a0b4009101ba00be
:10028000e280400032a0b4009102ba00e280400057
:1002900032a0b4000002eb00472bde00f507b200ed
:1002a000602ce10004003a000059eb008301e900f2
:1002b000fdff3e00040037006128e100010032002c
:1002c0000082eb00040007001101ba000200e00008
:1002d000e8ff3a00000006003159ba008301e90046
:1002e0000c0032002159ba008301e90008003200f5
:1002f0000400e00003003a00e280400032a0b400b5
:10030000f5ff370011d9ba008301e900faff3a007e
:100310008100e800e180400032a0b4000000060047
:100320000000fa00e402a900e422a900e442a900c6
:10033000e462a900e4c2a900c1e1a900c0c1bf00f4
:100340003040b300c0e1b700210e8000000028005b
:1003500000806000016f200001007000200e880006
:10036000c801a800c821a800c841a800c881a800e9
:10037000c8a1a800c8c1a800ca41a900c11c20008a
:100380009140780000ccb30000c07000cce1b70011
:10039000c11c20009140780000ccb30000c0600078
:1003a000a040b300cce1b700d201a900d221a9003e
:1003b000d241a900b01020001008880005e1a90072
:1003c000012a20009140780000ceb30000c07000e8
:1003d000a0e2b700a062a9000000eb0010158800a1
:1003e000512a20009140780000ceb30000c0600088
:1003f0000014a000a5e2b700412a20009140780037
:1004000000ccb30000c060005040b300a4e2b700cd
:1004100030012800401588000000eb0050158800ce
:10042000a1e2a90081e0a800aac0bf007040b3000b
:10043000aae0b7009180a8008c60a80051092000b4
:1004400091407800f0c8b30000c0600001c5b3005f
:100450000140700095e0b70090e0a900710a20000b
:1004600091407800f0c8b30000c0600001c6b3003e
:1004700001407000a7e0b7000080fa00000006000d
:100480000000fa00881f7800a5ff0700c1e1a9005d
:1004900090e0a900a1e2a80010002000900e8800c2
:1004a00000de2000b00e880000de2000c00e8800b4
:1004b00000de2000d00e8800e0c0b3005c01070021
:1004c0009043880050c0b3005901070080007800b5
:1004d00090438000008050005043880050438000cb
:1004e0000000e00002003c000000eb0050438800e8
:1004f0009843800080c0b3004d0107000000540005
:1005000040438800404380000000e00002003c00bf
:100510000000eb0040438800ff3ffc005443800094
:10052000454380001301c0004100c8001001800055
:10053000204388000000fc002043800030438800f6
:10054000504380006043880000052000704388000d
:1005500005e1a800c1e1a80090e0a8000000370074
:100560009142800080428000808f50000c00350056
:10057000c1428000d0428000008040000080d10055
:10058000e0428800e1428000f0428000808f50000d
:10059000010035008980a8000000eb00904288002f
:1005a0000143800010438000808f500025003500fb
:1005b000d0438000a0438800c0438000b243800045
:1005c000514380007443800080017800040078006b
:1005d000c3000700e0438800a0438000d0438800a8
:1005e000e143800000448000808f5000020035000d
:1005f00000448000e0438800e14380001044800014
:10060000808f500002003c0010448000e0438800ce
:10061000e04380004380de00e0438800e143800047
:100620002044800000804000e0438800ff3ffc0041
:10063000e0438000b00e88000000fc000000eb00ea
:1006400000438800b1428000a0428000808f5000ab
:10065000c3ff3500ff3ffc0054438000454380004a
:100660001301c0004100c800100180002043880031
:100670000000fc002143800030438000808f500048
:100680000e0034005143800060438000808f500092
:1006900003003400704380000000e80070438800cd
:1006a0005143800060438000808f500003003d0074
:1006b000704380000000e9007043880021438000ff
:1006c00030438000808f50000e003d005143800079
:1006d00060438000808f500003003400704380002e
:1006e0000000e900704388005143800060438000af
:1006f000808f500003003d00704380000000e80040
:1007000070438800704380000000e00002003c005d
:100710000000eb007043880071438000f0438000cc
:10072000808f500002003500f04380007043880045
:10073000204380003043880050438000604388009d
:100740000000eb00b042880085ff370000a0fe00eb
:100750000000fa00ff3ffc00904280000000e8002b
:1007600090428800004380000000e80000438800b9
:10077000b04280000000e800b04288000000fc00a9
:100780008460a9000080fa000080fe00004006009e
:1007900000a0fe000000fa00ff3ffc003030200007
:1007a00030158800a022a800a002ae00feff37008e
:1007b000a002aa0000148000c0428800202020006f
:1007c00030158800a022a800a002ae00feff37006e
:1007d000a002aa0000148000d04288009543800047
:1007e0005050200030158800a022a800a002ae00c2
:1007f000feff3700a002aa00001480000500500090
:100800000003eb000600e6000000eb005043880008
:100810008080200030158800a022a800a002ae0031
:10082000feff3700a002aa000014800000805200e2
:100830000003eb000600e6000000eb0086438000aa
:100840000680e6008980a800404388000000fc0084
:1008500088e0a9000080fa000080fe000040060049
:1008600000a0fe000000fa00c1e1a9000000eb00ba
:10087000400e88000060fe008980a9000080fa0018
:100880000080fe00004006000600fa0020079800e5
:100890000000eb00000f78000c0037000000eb00b8
:1008a00010079800040037000060fe001e00900052
:1008b0000000e800100798009e009000e0822600eb
:1008c000808f5000f8ff36001e0fe8002e009000c9
:1008d0009e0f1000f1ff39000080fa0000000600b2
:1008e000ff3ffc0001005000fe0402000000000079
:1008f00000027800820278001301c0004100c800a5
:10090000b804020000000000fe0402000000000025
:1009100000047800a943800009004200fe040200a0
:100920000000000000027800a043880083027800e5
:100930001301c0004100c800b8040200000000001c
:10094000fe0402000000000080047800090044005a
:100950000a4480001b4480000a80e6000a007800f8
:100960000b00e6000b0078004380de002e0037000d
:100970004220ef0060026a000a0033002a01800072
:100980000a00e00018003a001a0180000a00e000a6
:1009900018003200020009004555de0012003a003e
:1009a000140037002a018000fbff2f000a00e0003e
:1009b00001003a000f0037000b50e10007003a0039
:1009c0001a0180000a00e0000a003200020009005b
:1009d0004555de0001003200060037001a022800eb
:1009e0001a01880003003700fafd27001a01880069
:1009f000000037001001800000000600fafd23000f
:100a00001b022c000a00e10003003d000b00e10086
:100a100003003400030037000a00780001003700ab
:100a20000b007800000006000000fc00000006003b
:100a30000200fa00004f7800ff3ffc001e407800e3
:100a40006f4060006f416000612a20009140780093
:100a500000cfb30000c0600002407000a6e2b70003
:100a60001e4078006f4060006f416000712a2000d6
:100a70009140780000cfb30000c0600002407000d9
:100a8000a7e2b700a022a800a0c2bf00614060009a
:100a90000004e000fcff3200a002a9000000fc00fe
:0c0aa000001480000080fa000000060036
:020000040000fa
:0200000401f009
:04000000f7ff000006
:020000040000fa
:0200000401f009
:04000400ff7f00007a
:020000040000fa
:0200000401f009
:04000800ffff0000f6
:020000040000fa
:1000080082050000820500008205000082050000cc
:1000180082050000820500008205000082050000bc
:10002800820500008205000082050000a60300008a
:10003800820500008205000082050000820500009c
:10004800820500008205000082050000820500008c
:10005800820500008205000082050000820500007c
:10006800820500008205000082050000820500006c
:10007800820500008205000082050000820500005c
:10008800820500008205000082050000820500004c
:10009800820500008205000082050000820500003c
:1000a800820500008205000082050000820500002c
:1000b800820500008205000082050000c8030000d8
:1000c800820500008205000082050000820500000c
:1000d800300400008205000082050000820500004f
:1000e80082050000820500008205000082050000ec
:0800f8008205000082050000f2
:020000040000fa
:1001080082050000820500008205000082050000cb
:1001180082050000820500008205000082050000bb
:10012800820500008205000082050000a603000089
:10013800820500008205000082050000820500009b
:10014800820500008205000082050000820500008b
:10015800820500008205000082050000820500007b
:10016800820500008205000082050000820500006b
:10017800820500008205000082050000820500005b
:10018800820500008205000082050000820500004b
:10019800820500008205000082050000820500003b
:1001a800820500008205000082050000820500002b
:1001b800820500008205000082050000c8030000d7
:1001c800820500008205000082050000820500000b
:1001d800300400008205000082050000820500004e
:1001e80082050000820500008205000082050000eb
:0801f8008205000082050000f1
:020000040000fa
:100aac005008000036000000020000003200000078
:100abc0000bc7f0000000000000000000000980057
:100acc000300000004000000000000000000000013
:100adc000000000000008200000000000000240064
:100aec00000900000000000000c80000b0365000f3
:080afc00c9f006000000000033
:020000040000fa
:080b04000040da000000fe00d1
:00000001FF
